{
	"contracts/Lock.sol": {
		"Lottery": {
			"abi": [
				{
					"inputs": [],
					"stateMutability": "nonpayable",
					"type": "constructor"
				},
				{
					"inputs": [],
					"name": "buyTicket",
					"outputs": [],
					"stateMutability": "payable",
					"type": "function"
				},
				{
					"inputs": [],
					"name": "currentTicketId",
					"outputs": [
						{
							"internalType": "uint256",
							"name": "",
							"type": "uint256"
						}
					],
					"stateMutability": "view",
					"type": "function"
				},
				{
					"inputs": [],
					"name": "drawLottery",
					"outputs": [],
					"stateMutability": "payable",
					"type": "function"
				},
				{
					"inputs": [],
					"name": "ticketAmount",
					"outputs": [
						{
							"internalType": "uint256",
							"name": "",
							"type": "uint256"
						}
					],
					"stateMutability": "view",
					"type": "function"
				}
			],
			"devdoc": {
				"kind": "dev",
				"methods": {},
				"version": 1
			},
			"evm": {
				"assembly": "    /* \"contracts/Lock.sol\":140:1679  contract Lottery {... */\n  mstore(0x40, 0x80)\n    /* \"contracts/Lock.sol\":383:384  0 */\n  0x00\n    /* \"contracts/Lock.sol\":352:384  uint public currentTicketId  = 0 */\n  0x03\n  sstore\n    /* \"contracts/Lock.sol\":417:418  2 */\n  0x02\n    /* \"contracts/Lock.sol\":390:418  uint public ticketAmount = 2 */\n  0x04\n  sstore\n    /* \"contracts/Lock.sol\":425:473  constructor(){... */\n  callvalue\n  dup1\n  iszero\n  tag_1\n  jumpi\n  0x00\n  dup1\n  revert\ntag_1:\n  pop\n    /* \"contracts/Lock.sol\":456:466  msg.sender */\n  caller\n    /* \"contracts/Lock.sol\":448:453  owner */\n  0x00\n  dup1\n    /* \"contracts/Lock.sol\":448:466  owner = msg.sender */\n  0x0100\n  exp\n  dup2\n  sload\n  dup2\n  0xffffffffffffffffffffffffffffffffffffffff\n  mul\n  not\n  and\n  swap1\n  dup4\n  0xffffffffffffffffffffffffffffffffffffffff\n  and\n  mul\n  or\n  swap1\n  sstore\n  pop\n    /* \"contracts/Lock.sol\":140:1679  contract Lottery {... */\n  dataSize(sub_0)\n  dup1\n  dataOffset(sub_0)\n  0x00\n  codecopy\n  0x00\n  return\nstop\n\nsub_0: assembly {\n        /* \"contracts/Lock.sol\":140:1679  contract Lottery {... */\n      mstore(0x40, 0x80)\n      jumpi(tag_1, lt(calldatasize, 0x04))\n      shr(0xe0, calldataload(0x00))\n      dup1\n      0x0ba679c1\n      eq\n      tag_2\n      jumpi\n      dup1\n      0x27e605ec\n      eq\n      tag_3\n      jumpi\n      dup1\n      0x686465b8\n      eq\n      tag_4\n      jumpi\n      dup1\n      0xedca914c\n      eq\n      tag_5\n      jumpi\n    tag_1:\n      0x00\n      dup1\n      revert\n        /* \"contracts/Lock.sol\":390:418  uint public ticketAmount = 2 */\n    tag_2:\n      callvalue\n      dup1\n      iszero\n      tag_6\n      jumpi\n      0x00\n      dup1\n      revert\n    tag_6:\n      pop\n      tag_7\n      tag_8\n      jump\t// in\n    tag_7:\n      mload(0x40)\n      tag_9\n      swap2\n      swap1\n      tag_10\n      jump\t// in\n    tag_9:\n      mload(0x40)\n      dup1\n      swap2\n      sub\n      swap1\n      return\n        /* \"contracts/Lock.sol\":1097:1676  function drawLottery () external payable   {... */\n    tag_3:\n      tag_11\n      tag_12\n      jump\t// in\n    tag_11:\n      stop\n        /* \"contracts/Lock.sol\":352:384  uint public currentTicketId  = 0 */\n    tag_4:\n      callvalue\n      dup1\n      iszero\n      tag_13\n      jumpi\n      0x00\n      dup1\n      revert\n    tag_13:\n      pop\n      tag_14\n      tag_15\n      jump\t// in\n    tag_14:\n      mload(0x40)\n      tag_16\n      swap2\n      swap1\n      tag_10\n      jump\t// in\n    tag_16:\n      mload(0x40)\n      dup1\n      swap2\n      sub\n      swap1\n      return\n        /* \"contracts/Lock.sol\":479:870  function buyTicket () external payable  {... */\n    tag_5:\n      tag_17\n      tag_18\n      jump\t// in\n    tag_17:\n      stop\n        /* \"contracts/Lock.sol\":390:418  uint public ticketAmount = 2 */\n    tag_8:\n      sload(0x04)\n      dup2\n      jump\t// out\n        /* \"contracts/Lock.sol\":1097:1676  function drawLottery () external payable   {... */\n    tag_12:\n        /* \"contracts/Lock.sol\":1177:1189  ticketAmount */\n      sload(0x04)\n        /* \"contracts/Lock.sol\":1158:1173  currentTicketId */\n      sload(0x03)\n        /* \"contracts/Lock.sol\":1158:1189  currentTicketId == ticketAmount */\n      eq\n        /* \"contracts/Lock.sol\":1150:1212  require(currentTicketId == ticketAmount, \"A few tickets left\") */\n      tag_20\n      jumpi\n      mload(0x40)\n      0x08c379a000000000000000000000000000000000000000000000000000000000\n      dup2\n      mstore\n      0x04\n      add\n      tag_21\n      swap1\n      tag_22\n      jump\t// in\n    tag_21:\n      mload(0x40)\n      dup1\n      swap2\n      sub\n      swap1\n      revert\n    tag_20:\n        /* \"contracts/Lock.sol\":1222:1241  uint winnerTicketId */\n      0x00\n        /* \"contracts/Lock.sol\":1244:1279  getRandomTicketId(ticketAmount - 1) */\n      tag_23\n        /* \"contracts/Lock.sol\":1277:1278  1 */\n      0x01\n        /* \"contracts/Lock.sol\":1262:1274  ticketAmount */\n      sload(0x04)\n        /* \"contracts/Lock.sol\":1262:1278  ticketAmount - 1 */\n      tag_24\n      swap2\n      swap1\n      tag_25\n      jump\t// in\n    tag_24:\n        /* \"contracts/Lock.sol\":1244:1261  getRandomTicketId */\n      tag_26\n        /* \"contracts/Lock.sol\":1244:1279  getRandomTicketId(ticketAmount - 1) */\n      jump\t// in\n    tag_23:\n        /* \"contracts/Lock.sol\":1222:1279  uint winnerTicketId = getRandomTicketId(ticketAmount - 1) */\n      swap1\n      pop\n        /* \"contracts/Lock.sol\":1289:1318  address payable winnerAddress */\n      0x00\n        /* \"contracts/Lock.sol\":1329:1336  tickets */\n      0x01\n        /* \"contracts/Lock.sol\":1329:1352  tickets[winnerTicketId] */\n      0x00\n        /* \"contracts/Lock.sol\":1337:1351  winnerTicketId */\n      dup4\n        /* \"contracts/Lock.sol\":1329:1352  tickets[winnerTicketId] */\n      dup2\n      mstore\n      0x20\n      add\n      swap1\n      dup2\n      mstore\n      0x20\n      add\n      0x00\n      keccak256\n        /* \"contracts/Lock.sol\":1329:1358  tickets[winnerTicketId].owner */\n      0x01\n      add\n      0x00\n      swap1\n      sload\n      swap1\n      0x0100\n      exp\n      swap1\n      div\n      0xffffffffffffffffffffffffffffffffffffffff\n      and\n        /* \"contracts/Lock.sol\":1289:1359  address payable winnerAddress = payable(tickets[winnerTicketId].owner) */\n      swap1\n      pop\n        /* \"contracts/Lock.sol\":1370:1387  bool sentWinCheck */\n      0x00\n        /* \"contracts/Lock.sol\":1392:1405  winnerAddress */\n      dup2\n        /* \"contracts/Lock.sol\":1392:1410  winnerAddress.call */\n      0xffffffffffffffffffffffffffffffffffffffff\n      and\n        /* \"contracts/Lock.sol\":1448:1450  10 */\n      0x0a\n        /* \"contracts/Lock.sol\":1443:1444  9 */\n      0x09\n        /* \"contracts/Lock.sol\":1419:1440  address(this).balance */\n      selfbalance\n        /* \"contracts/Lock.sol\":1419:1444  address(this).balance * 9 */\n      tag_27\n      swap2\n      swap1\n      tag_28\n      jump\t// in\n    tag_27:\n        /* \"contracts/Lock.sol\":1418:1450  (address(this).balance * 9) / 10 */\n      tag_29\n      swap2\n      swap1\n      tag_30\n      jump\t// in\n    tag_29:\n        /* \"contracts/Lock.sol\":1392:1455  winnerAddress.call{value: (address(this).balance * 9) / 10}(\"\") */\n      mload(0x40)\n      tag_31\n      swap1\n      tag_32\n      jump\t// in\n    tag_31:\n      0x00\n      mload(0x40)\n      dup1\n      dup4\n      sub\n      dup2\n      dup6\n      dup8\n      gas\n      call\n      swap3\n      pop\n      pop\n      pop\n      returndatasize\n      dup1\n      0x00\n      dup2\n      eq\n      tag_35\n      jumpi\n      mload(0x40)\n      swap2\n      pop\n      and(add(returndatasize, 0x3f), not(0x1f))\n      dup3\n      add\n      0x40\n      mstore\n      returndatasize\n      dup3\n      mstore\n      returndatasize\n      0x00\n      0x20\n      dup5\n      add\n      returndatacopy\n      jump(tag_34)\n    tag_35:\n      0x60\n      swap2\n      pop\n    tag_34:\n      pop\n        /* \"contracts/Lock.sol\":1369:1455  (bool sentWinCheck,) = winnerAddress.call{value: (address(this).balance * 9) / 10}(\"\") */\n      pop\n      swap1\n      pop\n        /* \"contracts/Lock.sol\":1466:1483  bool sentFeeCheck */\n      0x00\n        /* \"contracts/Lock.sol\":1488:1501  winnerAddress */\n      dup3\n        /* \"contracts/Lock.sol\":1488:1506  winnerAddress.call */\n      0xffffffffffffffffffffffffffffffffffffffff\n      and\n        /* \"contracts/Lock.sol\":1544:1546  10 */\n      0x0a\n        /* \"contracts/Lock.sol\":1539:1540  1 */\n      0x01\n        /* \"contracts/Lock.sol\":1515:1536  address(this).balance */\n      selfbalance\n        /* \"contracts/Lock.sol\":1515:1540  address(this).balance * 1 */\n      tag_36\n      swap2\n      swap1\n      tag_28\n      jump\t// in\n    tag_36:\n        /* \"contracts/Lock.sol\":1514:1546  (address(this).balance * 1) / 10 */\n      tag_37\n      swap2\n      swap1\n      tag_30\n      jump\t// in\n    tag_37:\n        /* \"contracts/Lock.sol\":1488:1551  winnerAddress.call{value: (address(this).balance * 1) / 10}(\"\") */\n      mload(0x40)\n      tag_38\n      swap1\n      tag_32\n      jump\t// in\n    tag_38:\n      0x00\n      mload(0x40)\n      dup1\n      dup4\n      sub\n      dup2\n      dup6\n      dup8\n      gas\n      call\n      swap3\n      pop\n      pop\n      pop\n      returndatasize\n      dup1\n      0x00\n      dup2\n      eq\n      tag_41\n      jumpi\n      mload(0x40)\n      swap2\n      pop\n      and(add(returndatasize, 0x3f), not(0x1f))\n      dup3\n      add\n      0x40\n      mstore\n      returndatasize\n      dup3\n      mstore\n      returndatasize\n      0x00\n      0x20\n      dup5\n      add\n      returndatacopy\n      jump(tag_40)\n    tag_41:\n      0x60\n      swap2\n      pop\n    tag_40:\n      pop\n        /* \"contracts/Lock.sol\":1465:1551  (bool sentFeeCheck,) = winnerAddress.call{value: (address(this).balance * 1) / 10}(\"\") */\n      pop\n      swap1\n      pop\n        /* \"contracts/Lock.sol\":1569:1581  sentWinCheck */\n      dup2\n        /* \"contracts/Lock.sol\":1561:1616  require(sentWinCheck, \"Failed to send ether to winner\") */\n      tag_42\n      jumpi\n      mload(0x40)\n      0x08c379a000000000000000000000000000000000000000000000000000000000\n      dup2\n      mstore\n      0x04\n      add\n      tag_43\n      swap1\n      tag_44\n      jump\t// in\n    tag_43:\n      mload(0x40)\n      dup1\n      swap2\n      sub\n      swap1\n      revert\n    tag_42:\n        /* \"contracts/Lock.sol\":1634:1646  sentFeeCheck */\n      dup1\n        /* \"contracts/Lock.sol\":1626:1669  require(sentFeeCheck, \"Failed to send fee\") */\n      tag_45\n      jumpi\n      mload(0x40)\n      0x08c379a000000000000000000000000000000000000000000000000000000000\n      dup2\n      mstore\n      0x04\n      add\n      tag_46\n      swap1\n      tag_47\n      jump\t// in\n    tag_46:\n      mload(0x40)\n      dup1\n      swap2\n      sub\n      swap1\n      revert\n    tag_45:\n        /* \"contracts/Lock.sol\":1140:1676  {... */\n      pop\n      pop\n      pop\n      pop\n        /* \"contracts/Lock.sol\":1097:1676  function drawLottery () external payable   {... */\n      jump\t// out\n        /* \"contracts/Lock.sol\":352:384  uint public currentTicketId  = 0 */\n    tag_15:\n      sload(0x03)\n      dup2\n      jump\t// out\n        /* \"contracts/Lock.sol\":479:870  function buyTicket () external payable  {... */\n    tag_18:\n        /* \"contracts/Lock.sol\":555:567  ticketAmount */\n      sload(0x04)\n        /* \"contracts/Lock.sol\":537:552  currentTicketId */\n      sload(0x03)\n        /* \"contracts/Lock.sol\":537:567  currentTicketId < ticketAmount */\n      lt\n        /* \"contracts/Lock.sol\":529:596  require(currentTicketId < ticketAmount, \"No more tickets left(((\" ) */\n      tag_49\n      jumpi\n      mload(0x40)\n      0x08c379a000000000000000000000000000000000000000000000000000000000\n      dup2\n      mstore\n      0x04\n      add\n      tag_50\n      swap1\n      tag_51\n      jump\t// in\n    tag_50:\n      mload(0x40)\n      dup1\n      swap2\n      sub\n      swap1\n      revert\n    tag_49:\n        /* \"contracts/Lock.sol\":627:634  1 ether */\n      0x0de0b6b3a7640000\n        /* \"contracts/Lock.sol\":614:623  msg.value */\n      callvalue\n        /* \"contracts/Lock.sol\":614:634  msg.value == 1 ether */\n      eq\n        /* \"contracts/Lock.sol\":606:672  require(msg.value == 1 ether, \"Bitch! Pay 1 ether for a ticket!\" ) */\n      tag_52\n      jumpi\n      mload(0x40)\n      0x08c379a000000000000000000000000000000000000000000000000000000000\n      dup2\n      mstore\n      0x04\n      add\n      tag_53\n      swap1\n      tag_54\n      jump\t// in\n    tag_53:\n      mload(0x40)\n      dup1\n      swap2\n      sub\n      swap1\n      revert\n    tag_52:\n        /* \"contracts/Lock.sol\":682:705  Ticket memory newTicket */\n      0x00\n        /* \"contracts/Lock.sol\":708:790  Ticket({... */\n      mload(0x40)\n      dup1\n      0x40\n      add\n      0x40\n      mstore\n      dup1\n        /* \"contracts/Lock.sol\":733:748  currentTicketId */\n      sload(0x03)\n        /* \"contracts/Lock.sol\":708:790  Ticket({... */\n      dup2\n      mstore\n      0x20\n      add\n        /* \"contracts/Lock.sol\":769:779  msg.sender */\n      caller\n        /* \"contracts/Lock.sol\":708:790  Ticket({... */\n      0xffffffffffffffffffffffffffffffffffffffff\n      and\n      dup2\n      mstore\n      pop\n        /* \"contracts/Lock.sol\":682:790  Ticket memory newTicket = Ticket({... */\n      swap1\n      pop\n        /* \"contracts/Lock.sol\":827:836  newTicket */\n      dup1\n        /* \"contracts/Lock.sol\":800:807  tickets */\n      0x01\n        /* \"contracts/Lock.sol\":800:824  tickets[currentTicketId] */\n      0x00\n        /* \"contracts/Lock.sol\":808:823  currentTicketId */\n      sload(0x03)\n        /* \"contracts/Lock.sol\":800:824  tickets[currentTicketId] */\n      dup2\n      mstore\n      0x20\n      add\n      swap1\n      dup2\n      mstore\n      0x20\n      add\n      0x00\n      keccak256\n        /* \"contracts/Lock.sol\":800:836  tickets[currentTicketId] = newTicket */\n      0x00\n      dup3\n      add\n      mload\n      dup2\n      0x00\n      add\n      sstore\n      0x20\n      dup3\n      add\n      mload\n      dup2\n      0x01\n      add\n      exp(0x0100, 0x00)\n      dup2\n      sload\n      dup2\n      0xffffffffffffffffffffffffffffffffffffffff\n      mul\n      not\n      and\n      swap1\n      dup4\n      0xffffffffffffffffffffffffffffffffffffffff\n      and\n      mul\n      or\n      swap1\n      sstore\n      pop\n      swap1\n      pop\n      pop\n        /* \"contracts/Lock.sol\":846:861  currentTicketId */\n      0x03\n      0x00\n        /* \"contracts/Lock.sol\":846:863  currentTicketId++ */\n      dup2\n      sload\n      dup1\n      swap3\n      swap2\n      swap1\n      tag_55\n      swap1\n      tag_56\n      jump\t// in\n    tag_55:\n      swap2\n      swap1\n      pop\n      sstore\n      pop\n        /* \"contracts/Lock.sol\":519:870  {... */\n      pop\n        /* \"contracts/Lock.sol\":479:870  function buyTicket () external payable  {... */\n      jump\t// out\n        /* \"contracts/Lock.sol\":877:1091  function getRandomTicketId(uint max) private  view returns (uint) {... */\n    tag_26:\n        /* \"contracts/Lock.sol\":937:941  uint */\n      0x00\n        /* \"contracts/Lock.sol\":953:968  uint randomHash */\n      dup1\n        /* \"contracts/Lock.sol\":1003:1018  block.timestamp */\n      timestamp\n        /* \"contracts/Lock.sol\":1020:1036  block.difficulty */\n      prevrandao\n        /* \"contracts/Lock.sol\":1038:1048  msg.sender */\n      caller\n        /* \"contracts/Lock.sol\":986:1049  abi.encodePacked(block.timestamp, block.difficulty, msg.sender) */\n      add(0x20, mload(0x40))\n      tag_58\n      swap4\n      swap3\n      swap2\n      swap1\n      tag_59\n      jump\t// in\n    tag_58:\n      mload(0x40)\n      0x20\n      dup2\n      dup4\n      sub\n      sub\n      dup2\n      mstore\n      swap1\n      0x40\n      mstore\n        /* \"contracts/Lock.sol\":976:1050  keccak256(abi.encodePacked(block.timestamp, block.difficulty, msg.sender)) */\n      dup1\n      mload\n      swap1\n      0x20\n      add\n      keccak256\n        /* \"contracts/Lock.sol\":971:1051  uint(keccak256(abi.encodePacked(block.timestamp, block.difficulty, msg.sender))) */\n      0x00\n      shr\n        /* \"contracts/Lock.sol\":953:1051  uint randomHash = uint(keccak256(abi.encodePacked(block.timestamp, block.difficulty, msg.sender))) */\n      swap1\n      pop\n        /* \"contracts/Lock.sol\":1081:1084  max */\n      dup3\n        /* \"contracts/Lock.sol\":1068:1078  randomHash */\n      dup2\n        /* \"contracts/Lock.sol\":1068:1084  randomHash % max */\n      tag_60\n      swap2\n      swap1\n      tag_61\n      jump\t// in\n    tag_60:\n        /* \"contracts/Lock.sol\":1061:1084  return randomHash % max */\n      swap2\n      pop\n      pop\n        /* \"contracts/Lock.sol\":877:1091  function getRandomTicketId(uint max) private  view returns (uint) {... */\n      swap2\n      swap1\n      pop\n      jump\t// out\n        /* \"#utility.yul\":7:84   */\n    tag_62:\n        /* \"#utility.yul\":44:51   */\n      0x00\n        /* \"#utility.yul\":73:78   */\n      dup2\n        /* \"#utility.yul\":62:78   */\n      swap1\n      pop\n        /* \"#utility.yul\":7:84   */\n      swap2\n      swap1\n      pop\n      jump\t// out\n        /* \"#utility.yul\":90:208   */\n    tag_63:\n        /* \"#utility.yul\":177:201   */\n      tag_91\n        /* \"#utility.yul\":195:200   */\n      dup2\n        /* \"#utility.yul\":177:201   */\n      tag_62\n      jump\t// in\n    tag_91:\n        /* \"#utility.yul\":172:175   */\n      dup3\n        /* \"#utility.yul\":165:202   */\n      mstore\n        /* \"#utility.yul\":90:208   */\n      pop\n      pop\n      jump\t// out\n        /* \"#utility.yul\":214:436   */\n    tag_10:\n        /* \"#utility.yul\":307:311   */\n      0x00\n        /* \"#utility.yul\":345:347   */\n      0x20\n        /* \"#utility.yul\":334:343   */\n      dup3\n        /* \"#utility.yul\":330:348   */\n      add\n        /* \"#utility.yul\":322:348   */\n      swap1\n      pop\n        /* \"#utility.yul\":358:429   */\n      tag_93\n        /* \"#utility.yul\":426:427   */\n      0x00\n        /* \"#utility.yul\":415:424   */\n      dup4\n        /* \"#utility.yul\":411:428   */\n      add\n        /* \"#utility.yul\":402:408   */\n      dup5\n        /* \"#utility.yul\":358:429   */\n      tag_63\n      jump\t// in\n    tag_93:\n        /* \"#utility.yul\":214:436   */\n      swap3\n      swap2\n      pop\n      pop\n      jump\t// out\n        /* \"#utility.yul\":442:611   */\n    tag_64:\n        /* \"#utility.yul\":526:537   */\n      0x00\n        /* \"#utility.yul\":560:566   */\n      dup3\n        /* \"#utility.yul\":555:558   */\n      dup3\n        /* \"#utility.yul\":548:567   */\n      mstore\n        /* \"#utility.yul\":600:604   */\n      0x20\n        /* \"#utility.yul\":595:598   */\n      dup3\n        /* \"#utility.yul\":591:605   */\n      add\n        /* \"#utility.yul\":576:605   */\n      swap1\n      pop\n        /* \"#utility.yul\":442:611   */\n      swap3\n      swap2\n      pop\n      pop\n      jump\t// out\n        /* \"#utility.yul\":617:785   */\n    tag_65:\n        /* \"#utility.yul\":757:777   */\n      0x4120666577207469636b657473206c6566740000000000000000000000000000\n        /* \"#utility.yul\":753:754   */\n      0x00\n        /* \"#utility.yul\":745:751   */\n      dup3\n        /* \"#utility.yul\":741:755   */\n      add\n        /* \"#utility.yul\":734:778   */\n      mstore\n        /* \"#utility.yul\":617:785   */\n      pop\n      jump\t// out\n        /* \"#utility.yul\":791:1157   */\n    tag_66:\n        /* \"#utility.yul\":933:936   */\n      0x00\n        /* \"#utility.yul\":954:1021   */\n      tag_97\n        /* \"#utility.yul\":1018:1020   */\n      0x12\n        /* \"#utility.yul\":1013:1016   */\n      dup4\n        /* \"#utility.yul\":954:1021   */\n      tag_64\n      jump\t// in\n    tag_97:\n        /* \"#utility.yul\":947:1021   */\n      swap2\n      pop\n        /* \"#utility.yul\":1030:1123   */\n      tag_98\n        /* \"#utility.yul\":1119:1122   */\n      dup3\n        /* \"#utility.yul\":1030:1123   */\n      tag_65\n      jump\t// in\n    tag_98:\n        /* \"#utility.yul\":1148:1150   */\n      0x20\n        /* \"#utility.yul\":1143:1146   */\n      dup3\n        /* \"#utility.yul\":1139:1151   */\n      add\n        /* \"#utility.yul\":1132:1151   */\n      swap1\n      pop\n        /* \"#utility.yul\":791:1157   */\n      swap2\n      swap1\n      pop\n      jump\t// out\n        /* \"#utility.yul\":1163:1582   */\n    tag_22:\n        /* \"#utility.yul\":1329:1333   */\n      0x00\n        /* \"#utility.yul\":1367:1369   */\n      0x20\n        /* \"#utility.yul\":1356:1365   */\n      dup3\n        /* \"#utility.yul\":1352:1370   */\n      add\n        /* \"#utility.yul\":1344:1370   */\n      swap1\n      pop\n        /* \"#utility.yul\":1416:1425   */\n      dup2\n        /* \"#utility.yul\":1410:1414   */\n      dup2\n        /* \"#utility.yul\":1406:1426   */\n      sub\n        /* \"#utility.yul\":1402:1403   */\n      0x00\n        /* \"#utility.yul\":1391:1400   */\n      dup4\n        /* \"#utility.yul\":1387:1404   */\n      add\n        /* \"#utility.yul\":1380:1427   */\n      mstore\n        /* \"#utility.yul\":1444:1575   */\n      tag_100\n        /* \"#utility.yul\":1570:1574   */\n      dup2\n        /* \"#utility.yul\":1444:1575   */\n      tag_66\n      jump\t// in\n    tag_100:\n        /* \"#utility.yul\":1436:1575   */\n      swap1\n      pop\n        /* \"#utility.yul\":1163:1582   */\n      swap2\n      swap1\n      pop\n      jump\t// out\n        /* \"#utility.yul\":1588:1768   */\n    tag_67:\n        /* \"#utility.yul\":1636:1713   */\n      0x4e487b7100000000000000000000000000000000000000000000000000000000\n        /* \"#utility.yul\":1633:1634   */\n      0x00\n        /* \"#utility.yul\":1626:1714   */\n      mstore\n        /* \"#utility.yul\":1733:1737   */\n      0x11\n        /* \"#utility.yul\":1730:1731   */\n      0x04\n        /* \"#utility.yul\":1723:1738   */\n      mstore\n        /* \"#utility.yul\":1757:1761   */\n      0x24\n        /* \"#utility.yul\":1754:1755   */\n      0x00\n        /* \"#utility.yul\":1747:1762   */\n      revert\n        /* \"#utility.yul\":1774:1968   */\n    tag_25:\n        /* \"#utility.yul\":1814:1818   */\n      0x00\n        /* \"#utility.yul\":1834:1854   */\n      tag_103\n        /* \"#utility.yul\":1852:1853   */\n      dup3\n        /* \"#utility.yul\":1834:1854   */\n      tag_62\n      jump\t// in\n    tag_103:\n        /* \"#utility.yul\":1829:1854   */\n      swap2\n      pop\n        /* \"#utility.yul\":1868:1888   */\n      tag_104\n        /* \"#utility.yul\":1886:1887   */\n      dup4\n        /* \"#utility.yul\":1868:1888   */\n      tag_62\n      jump\t// in\n    tag_104:\n        /* \"#utility.yul\":1863:1888   */\n      swap3\n      pop\n        /* \"#utility.yul\":1912:1913   */\n      dup3\n        /* \"#utility.yul\":1909:1910   */\n      dup3\n        /* \"#utility.yul\":1905:1914   */\n      sub\n        /* \"#utility.yul\":1897:1914   */\n      swap1\n      pop\n        /* \"#utility.yul\":1936:1937   */\n      dup2\n        /* \"#utility.yul\":1930:1934   */\n      dup2\n        /* \"#utility.yul\":1927:1938   */\n      gt\n        /* \"#utility.yul\":1924:1961   */\n      iszero\n      tag_105\n      jumpi\n        /* \"#utility.yul\":1941:1959   */\n      tag_106\n      tag_67\n      jump\t// in\n    tag_106:\n        /* \"#utility.yul\":1924:1961   */\n    tag_105:\n        /* \"#utility.yul\":1774:1968   */\n      swap3\n      swap2\n      pop\n      pop\n      jump\t// out\n        /* \"#utility.yul\":1974:2384   */\n    tag_28:\n        /* \"#utility.yul\":2014:2021   */\n      0x00\n        /* \"#utility.yul\":2037:2057   */\n      tag_108\n        /* \"#utility.yul\":2055:2056   */\n      dup3\n        /* \"#utility.yul\":2037:2057   */\n      tag_62\n      jump\t// in\n    tag_108:\n        /* \"#utility.yul\":2032:2057   */\n      swap2\n      pop\n        /* \"#utility.yul\":2071:2091   */\n      tag_109\n        /* \"#utility.yul\":2089:2090   */\n      dup4\n        /* \"#utility.yul\":2071:2091   */\n      tag_62\n      jump\t// in\n    tag_109:\n        /* \"#utility.yul\":2066:2091   */\n      swap3\n      pop\n        /* \"#utility.yul\":2126:2127   */\n      dup3\n        /* \"#utility.yul\":2123:2124   */\n      dup3\n        /* \"#utility.yul\":2119:2128   */\n      mul\n        /* \"#utility.yul\":2148:2178   */\n      tag_110\n        /* \"#utility.yul\":2166:2177   */\n      dup2\n        /* \"#utility.yul\":2148:2178   */\n      tag_62\n      jump\t// in\n    tag_110:\n        /* \"#utility.yul\":2137:2178   */\n      swap2\n      pop\n        /* \"#utility.yul\":2327:2328   */\n      dup3\n        /* \"#utility.yul\":2318:2325   */\n      dup3\n        /* \"#utility.yul\":2314:2329   */\n      div\n        /* \"#utility.yul\":2311:2312   */\n      dup5\n        /* \"#utility.yul\":2308:2330   */\n      eq\n        /* \"#utility.yul\":2288:2289   */\n      dup4\n        /* \"#utility.yul\":2281:2290   */\n      iszero\n        /* \"#utility.yul\":2261:2344   */\n      or\n        /* \"#utility.yul\":2238:2377   */\n      tag_111\n      jumpi\n        /* \"#utility.yul\":2357:2375   */\n      tag_112\n      tag_67\n      jump\t// in\n    tag_112:\n        /* \"#utility.yul\":2238:2377   */\n    tag_111:\n        /* \"#utility.yul\":2022:2384   */\n      pop\n        /* \"#utility.yul\":1974:2384   */\n      swap3\n      swap2\n      pop\n      pop\n      jump\t// out\n        /* \"#utility.yul\":2390:2570   */\n    tag_68:\n        /* \"#utility.yul\":2438:2515   */\n      0x4e487b7100000000000000000000000000000000000000000000000000000000\n        /* \"#utility.yul\":2435:2436   */\n      0x00\n        /* \"#utility.yul\":2428:2516   */\n      mstore\n        /* \"#utility.yul\":2535:2539   */\n      0x12\n        /* \"#utility.yul\":2532:2533   */\n      0x04\n        /* \"#utility.yul\":2525:2540   */\n      mstore\n        /* \"#utility.yul\":2559:2563   */\n      0x24\n        /* \"#utility.yul\":2556:2557   */\n      0x00\n        /* \"#utility.yul\":2549:2564   */\n      revert\n        /* \"#utility.yul\":2576:2761   */\n    tag_30:\n        /* \"#utility.yul\":2616:2617   */\n      0x00\n        /* \"#utility.yul\":2633:2653   */\n      tag_115\n        /* \"#utility.yul\":2651:2652   */\n      dup3\n        /* \"#utility.yul\":2633:2653   */\n      tag_62\n      jump\t// in\n    tag_115:\n        /* \"#utility.yul\":2628:2653   */\n      swap2\n      pop\n        /* \"#utility.yul\":2667:2687   */\n      tag_116\n        /* \"#utility.yul\":2685:2686   */\n      dup4\n        /* \"#utility.yul\":2667:2687   */\n      tag_62\n      jump\t// in\n    tag_116:\n        /* \"#utility.yul\":2662:2687   */\n      swap3\n      pop\n        /* \"#utility.yul\":2706:2707   */\n      dup3\n        /* \"#utility.yul\":2696:2731   */\n      tag_117\n      jumpi\n        /* \"#utility.yul\":2711:2729   */\n      tag_118\n      tag_68\n      jump\t// in\n    tag_118:\n        /* \"#utility.yul\":2696:2731   */\n    tag_117:\n        /* \"#utility.yul\":2753:2754   */\n      dup3\n        /* \"#utility.yul\":2750:2751   */\n      dup3\n        /* \"#utility.yul\":2746:2755   */\n      div\n        /* \"#utility.yul\":2741:2755   */\n      swap1\n      pop\n        /* \"#utility.yul\":2576:2761   */\n      swap3\n      swap2\n      pop\n      pop\n      jump\t// out\n        /* \"#utility.yul\":2767:2914   */\n    tag_69:\n        /* \"#utility.yul\":2868:2879   */\n      0x00\n        /* \"#utility.yul\":2905:2908   */\n      dup2\n        /* \"#utility.yul\":2890:2908   */\n      swap1\n      pop\n        /* \"#utility.yul\":2767:2914   */\n      swap3\n      swap2\n      pop\n      pop\n      jump\t// out\n        /* \"#utility.yul\":2920:3034   */\n    tag_70:\n      pop\n      jump\t// out\n        /* \"#utility.yul\":3040:3438   */\n    tag_71:\n        /* \"#utility.yul\":3199:3202   */\n      0x00\n        /* \"#utility.yul\":3220:3303   */\n      tag_122\n        /* \"#utility.yul\":3301:3302   */\n      0x00\n        /* \"#utility.yul\":3296:3299   */\n      dup4\n        /* \"#utility.yul\":3220:3303   */\n      tag_69\n      jump\t// in\n    tag_122:\n        /* \"#utility.yul\":3213:3303   */\n      swap2\n      pop\n        /* \"#utility.yul\":3312:3405   */\n      tag_123\n        /* \"#utility.yul\":3401:3404   */\n      dup3\n        /* \"#utility.yul\":3312:3405   */\n      tag_70\n      jump\t// in\n    tag_123:\n        /* \"#utility.yul\":3430:3431   */\n      0x00\n        /* \"#utility.yul\":3425:3428   */\n      dup3\n        /* \"#utility.yul\":3421:3432   */\n      add\n        /* \"#utility.yul\":3414:3432   */\n      swap1\n      pop\n        /* \"#utility.yul\":3040:3438   */\n      swap2\n      swap1\n      pop\n      jump\t// out\n        /* \"#utility.yul\":3444:3823   */\n    tag_32:\n        /* \"#utility.yul\":3628:3631   */\n      0x00\n        /* \"#utility.yul\":3650:3797   */\n      tag_125\n        /* \"#utility.yul\":3793:3796   */\n      dup3\n        /* \"#utility.yul\":3650:3797   */\n      tag_71\n      jump\t// in\n    tag_125:\n        /* \"#utility.yul\":3643:3797   */\n      swap2\n      pop\n        /* \"#utility.yul\":3814:3817   */\n      dup2\n        /* \"#utility.yul\":3807:3817   */\n      swap1\n      pop\n        /* \"#utility.yul\":3444:3823   */\n      swap2\n      swap1\n      pop\n      jump\t// out\n        /* \"#utility.yul\":3829:4009   */\n    tag_72:\n        /* \"#utility.yul\":3969:4001   */\n      0x4661696c656420746f2073656e6420657468657220746f2077696e6e65720000\n        /* \"#utility.yul\":3965:3966   */\n      0x00\n        /* \"#utility.yul\":3957:3963   */\n      dup3\n        /* \"#utility.yul\":3953:3967   */\n      add\n        /* \"#utility.yul\":3946:4002   */\n      mstore\n        /* \"#utility.yul\":3829:4009   */\n      pop\n      jump\t// out\n        /* \"#utility.yul\":4015:4381   */\n    tag_73:\n        /* \"#utility.yul\":4157:4160   */\n      0x00\n        /* \"#utility.yul\":4178:4245   */\n      tag_128\n        /* \"#utility.yul\":4242:4244   */\n      0x1e\n        /* \"#utility.yul\":4237:4240   */\n      dup4\n        /* \"#utility.yul\":4178:4245   */\n      tag_64\n      jump\t// in\n    tag_128:\n        /* \"#utility.yul\":4171:4245   */\n      swap2\n      pop\n        /* \"#utility.yul\":4254:4347   */\n      tag_129\n        /* \"#utility.yul\":4343:4346   */\n      dup3\n        /* \"#utility.yul\":4254:4347   */\n      tag_72\n      jump\t// in\n    tag_129:\n        /* \"#utility.yul\":4372:4374   */\n      0x20\n        /* \"#utility.yul\":4367:4370   */\n      dup3\n        /* \"#utility.yul\":4363:4375   */\n      add\n        /* \"#utility.yul\":4356:4375   */\n      swap1\n      pop\n        /* \"#utility.yul\":4015:4381   */\n      swap2\n      swap1\n      pop\n      jump\t// out\n        /* \"#utility.yul\":4387:4806   */\n    tag_44:\n        /* \"#utility.yul\":4553:4557   */\n      0x00\n        /* \"#utility.yul\":4591:4593   */\n      0x20\n        /* \"#utility.yul\":4580:4589   */\n      dup3\n        /* \"#utility.yul\":4576:4594   */\n      add\n        /* \"#utility.yul\":4568:4594   */\n      swap1\n      pop\n        /* \"#utility.yul\":4640:4649   */\n      dup2\n        /* \"#utility.yul\":4634:4638   */\n      dup2\n        /* \"#utility.yul\":4630:4650   */\n      sub\n        /* \"#utility.yul\":4626:4627   */\n      0x00\n        /* \"#utility.yul\":4615:4624   */\n      dup4\n        /* \"#utility.yul\":4611:4628   */\n      add\n        /* \"#utility.yul\":4604:4651   */\n      mstore\n        /* \"#utility.yul\":4668:4799   */\n      tag_131\n        /* \"#utility.yul\":4794:4798   */\n      dup2\n        /* \"#utility.yul\":4668:4799   */\n      tag_73\n      jump\t// in\n    tag_131:\n        /* \"#utility.yul\":4660:4799   */\n      swap1\n      pop\n        /* \"#utility.yul\":4387:4806   */\n      swap2\n      swap1\n      pop\n      jump\t// out\n        /* \"#utility.yul\":4812:4980   */\n    tag_74:\n        /* \"#utility.yul\":4952:4972   */\n      0x4661696c656420746f2073656e64206665650000000000000000000000000000\n        /* \"#utility.yul\":4948:4949   */\n      0x00\n        /* \"#utility.yul\":4940:4946   */\n      dup3\n        /* \"#utility.yul\":4936:4950   */\n      add\n        /* \"#utility.yul\":4929:4973   */\n      mstore\n        /* \"#utility.yul\":4812:4980   */\n      pop\n      jump\t// out\n        /* \"#utility.yul\":4986:5352   */\n    tag_75:\n        /* \"#utility.yul\":5128:5131   */\n      0x00\n        /* \"#utility.yul\":5149:5216   */\n      tag_134\n        /* \"#utility.yul\":5213:5215   */\n      0x12\n        /* \"#utility.yul\":5208:5211   */\n      dup4\n        /* \"#utility.yul\":5149:5216   */\n      tag_64\n      jump\t// in\n    tag_134:\n        /* \"#utility.yul\":5142:5216   */\n      swap2\n      pop\n        /* \"#utility.yul\":5225:5318   */\n      tag_135\n        /* \"#utility.yul\":5314:5317   */\n      dup3\n        /* \"#utility.yul\":5225:5318   */\n      tag_74\n      jump\t// in\n    tag_135:\n        /* \"#utility.yul\":5343:5345   */\n      0x20\n        /* \"#utility.yul\":5338:5341   */\n      dup3\n        /* \"#utility.yul\":5334:5346   */\n      add\n        /* \"#utility.yul\":5327:5346   */\n      swap1\n      pop\n        /* \"#utility.yul\":4986:5352   */\n      swap2\n      swap1\n      pop\n      jump\t// out\n        /* \"#utility.yul\":5358:5777   */\n    tag_47:\n        /* \"#utility.yul\":5524:5528   */\n      0x00\n        /* \"#utility.yul\":5562:5564   */\n      0x20\n        /* \"#utility.yul\":5551:5560   */\n      dup3\n        /* \"#utility.yul\":5547:5565   */\n      add\n        /* \"#utility.yul\":5539:5565   */\n      swap1\n      pop\n        /* \"#utility.yul\":5611:5620   */\n      dup2\n        /* \"#utility.yul\":5605:5609   */\n      dup2\n        /* \"#utility.yul\":5601:5621   */\n      sub\n        /* \"#utility.yul\":5597:5598   */\n      0x00\n        /* \"#utility.yul\":5586:5595   */\n      dup4\n        /* \"#utility.yul\":5582:5599   */\n      add\n        /* \"#utility.yul\":5575:5622   */\n      mstore\n        /* \"#utility.yul\":5639:5770   */\n      tag_137\n        /* \"#utility.yul\":5765:5769   */\n      dup2\n        /* \"#utility.yul\":5639:5770   */\n      tag_75\n      jump\t// in\n    tag_137:\n        /* \"#utility.yul\":5631:5770   */\n      swap1\n      pop\n        /* \"#utility.yul\":5358:5777   */\n      swap2\n      swap1\n      pop\n      jump\t// out\n        /* \"#utility.yul\":5783:5968   */\n    tag_76:\n        /* \"#utility.yul\":5923:5948   */\n      0x4e6f206d6f7265207469636b657473206c656674282828000000000000000000\n        /* \"#utility.yul\":5919:5920   */\n      0x00\n        /* \"#utility.yul\":5911:5917   */\n      dup3\n        /* \"#utility.yul\":5907:5921   */\n      add\n        /* \"#utility.yul\":5900:5949   */\n      mstore\n        /* \"#utility.yul\":5783:5968   */\n      pop\n      jump\t// out\n        /* \"#utility.yul\":5986:6400   */\n    tag_77:\n        /* \"#utility.yul\":6128:6131   */\n      0x00\n        /* \"#utility.yul\":6161:6228   */\n      tag_140\n        /* \"#utility.yul\":6225:6227   */\n      0x17\n        /* \"#utility.yul\":6220:6223   */\n      dup4\n        /* \"#utility.yul\":6161:6228   */\n      tag_64\n      jump\t// in\n    tag_140:\n        /* \"#utility.yul\":6154:6228   */\n      swap2\n      pop\n        /* \"#utility.yul\":6249:6342   */\n      tag_141\n        /* \"#utility.yul\":6338:6341   */\n      dup3\n        /* \"#utility.yul\":6249:6342   */\n      tag_76\n      jump\t// in\n    tag_141:\n        /* \"#utility.yul\":6379:6381   */\n      0x20\n        /* \"#utility.yul\":6374:6377   */\n      dup3\n        /* \"#utility.yul\":6370:6382   */\n      add\n        /* \"#utility.yul\":6363:6382   */\n      swap1\n      pop\n        /* \"#utility.yul\":5986:6400   */\n      swap2\n      swap1\n      pop\n      jump\t// out\n        /* \"#utility.yul\":6418:6885   */\n    tag_51:\n        /* \"#utility.yul\":6584:6588   */\n      0x00\n        /* \"#utility.yul\":6634:6636   */\n      0x20\n        /* \"#utility.yul\":6623:6632   */\n      dup3\n        /* \"#utility.yul\":6619:6637   */\n      add\n        /* \"#utility.yul\":6611:6637   */\n      swap1\n      pop\n        /* \"#utility.yul\":6695:6704   */\n      dup2\n        /* \"#utility.yul\":6689:6693   */\n      dup2\n        /* \"#utility.yul\":6685:6705   */\n      sub\n        /* \"#utility.yul\":6681:6682   */\n      0x00\n        /* \"#utility.yul\":6670:6679   */\n      dup4\n        /* \"#utility.yul\":6666:6683   */\n      add\n        /* \"#utility.yul\":6659:6706   */\n      mstore\n        /* \"#utility.yul\":6735:6866   */\n      tag_143\n        /* \"#utility.yul\":6861:6865   */\n      dup2\n        /* \"#utility.yul\":6735:6866   */\n      tag_77\n      jump\t// in\n    tag_143:\n        /* \"#utility.yul\":6727:6866   */\n      swap1\n      pop\n        /* \"#utility.yul\":6418:6885   */\n      swap2\n      swap1\n      pop\n      jump\t// out\n        /* \"#utility.yul\":6903:7109   */\n    tag_78:\n        /* \"#utility.yul\":7055:7089   */\n      0x42697463682120506179203120657468657220666f722061207469636b657421\n        /* \"#utility.yul\":7051:7052   */\n      0x00\n        /* \"#utility.yul\":7043:7049   */\n      dup3\n        /* \"#utility.yul\":7039:7053   */\n      add\n        /* \"#utility.yul\":7032:7090   */\n      mstore\n        /* \"#utility.yul\":6903:7109   */\n      pop\n      jump\t// out\n        /* \"#utility.yul\":7127:7541   */\n    tag_79:\n        /* \"#utility.yul\":7269:7272   */\n      0x00\n        /* \"#utility.yul\":7302:7369   */\n      tag_146\n        /* \"#utility.yul\":7366:7368   */\n      0x20\n        /* \"#utility.yul\":7361:7364   */\n      dup4\n        /* \"#utility.yul\":7302:7369   */\n      tag_64\n      jump\t// in\n    tag_146:\n        /* \"#utility.yul\":7295:7369   */\n      swap2\n      pop\n        /* \"#utility.yul\":7390:7483   */\n      tag_147\n        /* \"#utility.yul\":7479:7482   */\n      dup3\n        /* \"#utility.yul\":7390:7483   */\n      tag_78\n      jump\t// in\n    tag_147:\n        /* \"#utility.yul\":7520:7522   */\n      0x20\n        /* \"#utility.yul\":7515:7518   */\n      dup3\n        /* \"#utility.yul\":7511:7523   */\n      add\n        /* \"#utility.yul\":7504:7523   */\n      swap1\n      pop\n        /* \"#utility.yul\":7127:7541   */\n      swap2\n      swap1\n      pop\n      jump\t// out\n        /* \"#utility.yul\":7559:8026   */\n    tag_54:\n        /* \"#utility.yul\":7725:7729   */\n      0x00\n        /* \"#utility.yul\":7775:7777   */\n      0x20\n        /* \"#utility.yul\":7764:7773   */\n      dup3\n        /* \"#utility.yul\":7760:7778   */\n      add\n        /* \"#utility.yul\":7752:7778   */\n      swap1\n      pop\n        /* \"#utility.yul\":7836:7845   */\n      dup2\n        /* \"#utility.yul\":7830:7834   */\n      dup2\n        /* \"#utility.yul\":7826:7846   */\n      sub\n        /* \"#utility.yul\":7822:7823   */\n      0x00\n        /* \"#utility.yul\":7811:7820   */\n      dup4\n        /* \"#utility.yul\":7807:7824   */\n      add\n        /* \"#utility.yul\":7800:7847   */\n      mstore\n        /* \"#utility.yul\":7876:8007   */\n      tag_149\n        /* \"#utility.yul\":8002:8006   */\n      dup2\n        /* \"#utility.yul\":7876:8007   */\n      tag_79\n      jump\t// in\n    tag_149:\n        /* \"#utility.yul\":7868:8007   */\n      swap1\n      pop\n        /* \"#utility.yul\":7559:8026   */\n      swap2\n      swap1\n      pop\n      jump\t// out\n        /* \"#utility.yul\":8044:8325   */\n    tag_56:\n        /* \"#utility.yul\":8083:8086   */\n      0x00\n        /* \"#utility.yul\":8118:8142   */\n      tag_151\n        /* \"#utility.yul\":8136:8141   */\n      dup3\n        /* \"#utility.yul\":8118:8142   */\n      tag_62\n      jump\t// in\n    tag_151:\n        /* \"#utility.yul\":8109:8142   */\n      swap2\n      pop\n        /* \"#utility.yul\":8176:8242   */\n      0xffffffffffffffffffffffffffffffffffffffffffffffffffffffffffffffff\n        /* \"#utility.yul\":8169:8174   */\n      dup3\n        /* \"#utility.yul\":8166:8243   */\n      sub\n        /* \"#utility.yul\":8163:8266   */\n      tag_152\n      jumpi\n        /* \"#utility.yul\":8246:8264   */\n      tag_153\n      tag_67\n      jump\t// in\n    tag_153:\n        /* \"#utility.yul\":8163:8266   */\n    tag_152:\n        /* \"#utility.yul\":8305:8306   */\n      0x01\n        /* \"#utility.yul\":8298:8303   */\n      dup3\n        /* \"#utility.yul\":8294:8307   */\n      add\n        /* \"#utility.yul\":8287:8307   */\n      swap1\n      pop\n        /* \"#utility.yul\":8044:8325   */\n      swap2\n      swap1\n      pop\n      jump\t// out\n        /* \"#utility.yul\":8343:8446   */\n    tag_80:\n        /* \"#utility.yul\":8382:8389   */\n      0x00\n        /* \"#utility.yul\":8423:8428   */\n      dup2\n        /* \"#utility.yul\":8412:8428   */\n      swap1\n      pop\n        /* \"#utility.yul\":8343:8446   */\n      swap2\n      swap1\n      pop\n      jump\t// out\n        /* \"#utility.yul\":8464:8645   */\n    tag_81:\n        /* \"#utility.yul\":8581:8626   */\n      tag_156\n        /* \"#utility.yul\":8601:8625   */\n      tag_157\n        /* \"#utility.yul\":8619:8624   */\n      dup3\n        /* \"#utility.yul\":8601:8625   */\n      tag_62\n      jump\t// in\n    tag_157:\n        /* \"#utility.yul\":8581:8626   */\n      tag_80\n      jump\t// in\n    tag_156:\n        /* \"#utility.yul\":8576:8579   */\n      dup3\n        /* \"#utility.yul\":8569:8627   */\n      mstore\n        /* \"#utility.yul\":8464:8645   */\n      pop\n      pop\n      jump\t// out\n        /* \"#utility.yul\":8663:8813   */\n    tag_82:\n        /* \"#utility.yul\":8700:8707   */\n      0x00\n        /* \"#utility.yul\":8752:8794   */\n      0xffffffffffffffffffffffffffffffffffffffff\n        /* \"#utility.yul\":8745:8750   */\n      dup3\n        /* \"#utility.yul\":8741:8795   */\n      and\n        /* \"#utility.yul\":8730:8795   */\n      swap1\n      pop\n        /* \"#utility.yul\":8663:8813   */\n      swap2\n      swap1\n      pop\n      jump\t// out\n        /* \"#utility.yul\":8831:8951   */\n    tag_83:\n        /* \"#utility.yul\":8868:8875   */\n      0x00\n        /* \"#utility.yul\":8909:8933   */\n      tag_160\n        /* \"#utility.yul\":8927:8932   */\n      dup3\n        /* \"#utility.yul\":8909:8933   */\n      tag_82\n      jump\t// in\n    tag_160:\n        /* \"#utility.yul\":8898:8933   */\n      swap1\n      pop\n        /* \"#utility.yul\":8831:8951   */\n      swap2\n      swap1\n      pop\n      jump\t// out\n        /* \"#utility.yul\":8969:9099   */\n    tag_84:\n        /* \"#utility.yul\":9002:9010   */\n      0x00\n        /* \"#utility.yul\":9074:9079   */\n      dup2\n        /* \"#utility.yul\":9070:9072   */\n      0x60\n        /* \"#utility.yul\":9066:9080   */\n      shl\n        /* \"#utility.yul\":9033:9080   */\n      swap1\n      pop\n        /* \"#utility.yul\":8969:9099   */\n      swap2\n      swap1\n      pop\n      jump\t// out\n        /* \"#utility.yul\":9117:9235   */\n    tag_85:\n        /* \"#utility.yul\":9156:9163   */\n      0x00\n        /* \"#utility.yul\":9197:9217   */\n      tag_163\n        /* \"#utility.yul\":9211:9216   */\n      dup3\n        /* \"#utility.yul\":9197:9217   */\n      tag_84\n      jump\t// in\n    tag_163:\n        /* \"#utility.yul\":9186:9217   */\n      swap1\n      pop\n        /* \"#utility.yul\":9117:9235   */\n      swap2\n      swap1\n      pop\n      jump\t// out\n        /* \"#utility.yul\":9253:9377   */\n    tag_86:\n        /* \"#utility.yul\":9292:9299   */\n      0x00\n        /* \"#utility.yul\":9333:9359   */\n      tag_165\n        /* \"#utility.yul\":9353:9358   */\n      dup3\n        /* \"#utility.yul\":9333:9359   */\n      tag_85\n      jump\t// in\n    tag_165:\n        /* \"#utility.yul\":9322:9359   */\n      swap1\n      pop\n        /* \"#utility.yul\":9253:9377   */\n      swap2\n      swap1\n      pop\n      jump\t// out\n        /* \"#utility.yul\":9395:9576   */\n    tag_87:\n        /* \"#utility.yul\":9512:9557   */\n      tag_167\n        /* \"#utility.yul\":9532:9556   */\n      tag_168\n        /* \"#utility.yul\":9550:9555   */\n      dup3\n        /* \"#utility.yul\":9532:9556   */\n      tag_83\n      jump\t// in\n    tag_168:\n        /* \"#utility.yul\":9512:9557   */\n      tag_86\n      jump\t// in\n    tag_167:\n        /* \"#utility.yul\":9507:9510   */\n      dup3\n        /* \"#utility.yul\":9500:9558   */\n      mstore\n        /* \"#utility.yul\":9395:9576   */\n      pop\n      pop\n      jump\t// out\n        /* \"#utility.yul\":9594:10228   */\n    tag_59:\n        /* \"#utility.yul\":9762:9765   */\n      0x00\n        /* \"#utility.yul\":9789:9864   */\n      tag_170\n        /* \"#utility.yul\":9860:9863   */\n      dup3\n        /* \"#utility.yul\":9851:9857   */\n      dup7\n        /* \"#utility.yul\":9789:9864   */\n      tag_81\n      jump\t// in\n    tag_170:\n        /* \"#utility.yul\":9901:9903   */\n      0x20\n        /* \"#utility.yul\":9896:9899   */\n      dup3\n        /* \"#utility.yul\":9892:9904   */\n      add\n        /* \"#utility.yul\":9885:9904   */\n      swap2\n      pop\n        /* \"#utility.yul\":9926:10001   */\n      tag_171\n        /* \"#utility.yul\":9997:10000   */\n      dup3\n        /* \"#utility.yul\":9988:9994   */\n      dup6\n        /* \"#utility.yul\":9926:10001   */\n      tag_81\n      jump\t// in\n    tag_171:\n        /* \"#utility.yul\":10038:10040   */\n      0x20\n        /* \"#utility.yul\":10033:10036   */\n      dup3\n        /* \"#utility.yul\":10029:10041   */\n      add\n        /* \"#utility.yul\":10022:10041   */\n      swap2\n      pop\n        /* \"#utility.yul\":10063:10138   */\n      tag_172\n        /* \"#utility.yul\":10134:10137   */\n      dup3\n        /* \"#utility.yul\":10125:10131   */\n      dup5\n        /* \"#utility.yul\":10063:10138   */\n      tag_87\n      jump\t// in\n    tag_172:\n        /* \"#utility.yul\":10175:10177   */\n      0x14\n        /* \"#utility.yul\":10170:10173   */\n      dup3\n        /* \"#utility.yul\":10166:10178   */\n      add\n        /* \"#utility.yul\":10159:10178   */\n      swap2\n      pop\n        /* \"#utility.yul\":10207:10210   */\n      dup2\n        /* \"#utility.yul\":10200:10210   */\n      swap1\n      pop\n        /* \"#utility.yul\":9594:10228   */\n      swap5\n      swap4\n      pop\n      pop\n      pop\n      pop\n      jump\t// out\n        /* \"#utility.yul\":10246:10482   */\n    tag_61:\n        /* \"#utility.yul\":10278:10279   */\n      0x00\n        /* \"#utility.yul\":10307:10327   */\n      tag_174\n        /* \"#utility.yul\":10325:10326   */\n      dup3\n        /* \"#utility.yul\":10307:10327   */\n      tag_62\n      jump\t// in\n    tag_174:\n        /* \"#utility.yul\":10302:10327   */\n      swap2\n      pop\n        /* \"#utility.yul\":10353:10373   */\n      tag_175\n        /* \"#utility.yul\":10371:10372   */\n      dup4\n        /* \"#utility.yul\":10353:10373   */\n      tag_62\n      jump\t// in\n    tag_175:\n        /* \"#utility.yul\":10348:10373   */\n      swap3\n      pop\n        /* \"#utility.yul\":10404:10405   */\n      dup3\n        /* \"#utility.yul\":10394:10429   */\n      tag_176\n      jumpi\n        /* \"#utility.yul\":10409:10427   */\n      tag_177\n      tag_68\n      jump\t// in\n    tag_177:\n        /* \"#utility.yul\":10394:10429   */\n    tag_176:\n        /* \"#utility.yul\":10462:10463   */\n      dup3\n        /* \"#utility.yul\":10459:10460   */\n      dup3\n        /* \"#utility.yul\":10455:10464   */\n      mod\n        /* \"#utility.yul\":10450:10464   */\n      swap1\n      pop\n        /* \"#utility.yul\":10246:10482   */\n      swap3\n      swap2\n      pop\n      pop\n      jump\t// out\n\n    auxdata: 0xa26469706673582212208fbe02cfef78d849962ef7db668d70edfb094b836344dd9d62e50206e988c40664736f6c63430008160033\n}\n",
				"bytecode": {
					"linkReferences": {},
					"object": "60806040525f6003556002600455348015610018575f80fd5b50335f806101000a81548173ffffffffffffffffffffffffffffffffffffffff021916908373ffffffffffffffffffffffffffffffffffffffff16021790555061095d806100655f395ff3fe60806040526004361061003e575f3560e01c80630ba679c11461004257806327e605ec1461006c578063686465b814610076578063edca914c146100a0575b5f80fd5b34801561004d575f80fd5b506100566100aa565b604051610063919061046f565b60405180910390f35b6100746100b0565b005b348015610081575f80fd5b5061008a6102cd565b604051610097919061046f565b60405180910390f35b6100a86102d3565b005b60045481565b600454600354146100f6576040517f08c379a00000000000000000000000000000000000000000000000000000000081526004016100ed906104e2565b60405180910390fd5b5f61010e6001600454610109919061052d565b610412565b90505f60015f8381526020019081526020015f206001015f9054906101000a900473ffffffffffffffffffffffffffffffffffffffff1690505f8173ffffffffffffffffffffffffffffffffffffffff16600a60094761016e9190610560565b61017891906105ce565b6040516101849061062b565b5f6040518083038185875af1925050503d805f81146101be576040519150601f19603f3d011682016040523d82523d5f602084013e6101c3565b606091505b505090505f8273ffffffffffffffffffffffffffffffffffffffff16600a6001476101ee9190610560565b6101f891906105ce565b6040516102049061062b565b5f6040518083038185875af1925050503d805f811461023e576040519150601f19603f3d011682016040523d82523d5f602084013e610243565b606091505b5050905081610287576040517f08c379a000000000000000000000000000000000000000000000000000000000815260040161027e90610689565b60405180910390fd5b806102c7576040517f08c379a00000000000000000000000000000000000000000000000000000000081526004016102be906106f1565b60405180910390fd5b50505050565b60035481565b60045460035410610319576040517f08c379a000000000000000000000000000000000000000000000000000000000815260040161031090610759565b60405180910390fd5b670de0b6b3a76400003414610363576040517f08c379a000000000000000000000000000000000000000000000000000000000815260040161035a906107c1565b60405180910390fd5b5f604051806040016040528060035481526020013373ffffffffffffffffffffffffffffffffffffffff1681525090508060015f60035481526020019081526020015f205f820151815f01556020820151816001015f6101000a81548173ffffffffffffffffffffffffffffffffffffffff021916908373ffffffffffffffffffffffffffffffffffffffff16021790555090505060035f81548092919061040a906107df565b919050555050565b5f80424433604051602001610429939291906108bb565b604051602081830303815290604052805190602001205f1c9050828161044f91906108f7565b915050919050565b5f819050919050565b61046981610457565b82525050565b5f6020820190506104825f830184610460565b92915050565b5f82825260208201905092915050565b7f4120666577207469636b657473206c65667400000000000000000000000000005f82015250565b5f6104cc601283610488565b91506104d782610498565b602082019050919050565b5f6020820190508181035f8301526104f9816104c0565b9050919050565b7f4e487b71000000000000000000000000000000000000000000000000000000005f52601160045260245ffd5b5f61053782610457565b915061054283610457565b925082820390508181111561055a57610559610500565b5b92915050565b5f61056a82610457565b915061057583610457565b925082820261058381610457565b9150828204841483151761059a57610599610500565b5b5092915050565b7f4e487b71000000000000000000000000000000000000000000000000000000005f52601260045260245ffd5b5f6105d882610457565b91506105e383610457565b9250826105f3576105f26105a1565b5b828204905092915050565b5f81905092915050565b50565b5f6106165f836105fe565b915061062182610608565b5f82019050919050565b5f6106358261060b565b9150819050919050565b7f4661696c656420746f2073656e6420657468657220746f2077696e6e657200005f82015250565b5f610673601e83610488565b915061067e8261063f565b602082019050919050565b5f6020820190508181035f8301526106a081610667565b9050919050565b7f4661696c656420746f2073656e642066656500000000000000000000000000005f82015250565b5f6106db601283610488565b91506106e6826106a7565b602082019050919050565b5f6020820190508181035f830152610708816106cf565b9050919050565b7f4e6f206d6f7265207469636b657473206c6566742828280000000000000000005f82015250565b5f610743601783610488565b915061074e8261070f565b602082019050919050565b5f6020820190508181035f83015261077081610737565b9050919050565b7f42697463682120506179203120657468657220666f722061207469636b6574215f82015250565b5f6107ab602083610488565b91506107b682610777565b602082019050919050565b5f6020820190508181035f8301526107d88161079f565b9050919050565b5f6107e982610457565b91507fffffffffffffffffffffffffffffffffffffffffffffffffffffffffffffffff820361081b5761081a610500565b5b600182019050919050565b5f819050919050565b61084061083b82610457565b610826565b82525050565b5f73ffffffffffffffffffffffffffffffffffffffff82169050919050565b5f61086f82610846565b9050919050565b5f8160601b9050919050565b5f61088c82610876565b9050919050565b5f61089d82610882565b9050919050565b6108b56108b082610865565b610893565b82525050565b5f6108c6828661082f565b6020820191506108d6828561082f565b6020820191506108e682846108a4565b601482019150819050949350505050565b5f61090182610457565b915061090c83610457565b92508261091c5761091b6105a1565b5b82820690509291505056fea26469706673582212208fbe02cfef78d849962ef7db668d70edfb094b836344dd9d62e50206e988c40664736f6c63430008160033",
					"opcodes": "PUSH1 0x80 PUSH1 0x40 MSTORE PUSH0 PUSH1 0x3 SSTORE PUSH1 0x2 PUSH1 0x4 SSTORE CALLVALUE DUP1 ISZERO PUSH2 0x18 JUMPI PUSH0 DUP1 REVERT JUMPDEST POP CALLER PUSH0 DUP1 PUSH2 0x100 EXP DUP2 SLOAD DUP2 PUSH20 0xFFFFFFFFFFFFFFFFFFFFFFFFFFFFFFFFFFFFFFFF MUL NOT AND SWAP1 DUP4 PUSH20 0xFFFFFFFFFFFFFFFFFFFFFFFFFFFFFFFFFFFFFFFF AND MUL OR SWAP1 SSTORE POP PUSH2 0x95D DUP1 PUSH2 0x65 PUSH0 CODECOPY PUSH0 RETURN INVALID PUSH1 0x80 PUSH1 0x40 MSTORE PUSH1 0x4 CALLDATASIZE LT PUSH2 0x3E JUMPI PUSH0 CALLDATALOAD PUSH1 0xE0 SHR DUP1 PUSH4 0xBA679C1 EQ PUSH2 0x42 JUMPI DUP1 PUSH4 0x27E605EC EQ PUSH2 0x6C JUMPI DUP1 PUSH4 0x686465B8 EQ PUSH2 0x76 JUMPI DUP1 PUSH4 0xEDCA914C EQ PUSH2 0xA0 JUMPI JUMPDEST PUSH0 DUP1 REVERT JUMPDEST CALLVALUE DUP1 ISZERO PUSH2 0x4D JUMPI PUSH0 DUP1 REVERT JUMPDEST POP PUSH2 0x56 PUSH2 0xAA JUMP JUMPDEST PUSH1 0x40 MLOAD PUSH2 0x63 SWAP2 SWAP1 PUSH2 0x46F JUMP JUMPDEST PUSH1 0x40 MLOAD DUP1 SWAP2 SUB SWAP1 RETURN JUMPDEST PUSH2 0x74 PUSH2 0xB0 JUMP JUMPDEST STOP JUMPDEST CALLVALUE DUP1 ISZERO PUSH2 0x81 JUMPI PUSH0 DUP1 REVERT JUMPDEST POP PUSH2 0x8A PUSH2 0x2CD JUMP JUMPDEST PUSH1 0x40 MLOAD PUSH2 0x97 SWAP2 SWAP1 PUSH2 0x46F JUMP JUMPDEST PUSH1 0x40 MLOAD DUP1 SWAP2 SUB SWAP1 RETURN JUMPDEST PUSH2 0xA8 PUSH2 0x2D3 JUMP JUMPDEST STOP JUMPDEST PUSH1 0x4 SLOAD DUP2 JUMP JUMPDEST PUSH1 0x4 SLOAD PUSH1 0x3 SLOAD EQ PUSH2 0xF6 JUMPI PUSH1 0x40 MLOAD PUSH32 0x8C379A000000000000000000000000000000000000000000000000000000000 DUP2 MSTORE PUSH1 0x4 ADD PUSH2 0xED SWAP1 PUSH2 0x4E2 JUMP JUMPDEST PUSH1 0x40 MLOAD DUP1 SWAP2 SUB SWAP1 REVERT JUMPDEST PUSH0 PUSH2 0x10E PUSH1 0x1 PUSH1 0x4 SLOAD PUSH2 0x109 SWAP2 SWAP1 PUSH2 0x52D JUMP JUMPDEST PUSH2 0x412 JUMP JUMPDEST SWAP1 POP PUSH0 PUSH1 0x1 PUSH0 DUP4 DUP2 MSTORE PUSH1 0x20 ADD SWAP1 DUP2 MSTORE PUSH1 0x20 ADD PUSH0 KECCAK256 PUSH1 0x1 ADD PUSH0 SWAP1 SLOAD SWAP1 PUSH2 0x100 EXP SWAP1 DIV PUSH20 0xFFFFFFFFFFFFFFFFFFFFFFFFFFFFFFFFFFFFFFFF AND SWAP1 POP PUSH0 DUP2 PUSH20 0xFFFFFFFFFFFFFFFFFFFFFFFFFFFFFFFFFFFFFFFF AND PUSH1 0xA PUSH1 0x9 SELFBALANCE PUSH2 0x16E SWAP2 SWAP1 PUSH2 0x560 JUMP JUMPDEST PUSH2 0x178 SWAP2 SWAP1 PUSH2 0x5CE JUMP JUMPDEST PUSH1 0x40 MLOAD PUSH2 0x184 SWAP1 PUSH2 0x62B JUMP JUMPDEST PUSH0 PUSH1 0x40 MLOAD DUP1 DUP4 SUB DUP2 DUP6 DUP8 GAS CALL SWAP3 POP POP POP RETURNDATASIZE DUP1 PUSH0 DUP2 EQ PUSH2 0x1BE JUMPI PUSH1 0x40 MLOAD SWAP2 POP PUSH1 0x1F NOT PUSH1 0x3F RETURNDATASIZE ADD AND DUP3 ADD PUSH1 0x40 MSTORE RETURNDATASIZE DUP3 MSTORE RETURNDATASIZE PUSH0 PUSH1 0x20 DUP5 ADD RETURNDATACOPY PUSH2 0x1C3 JUMP JUMPDEST PUSH1 0x60 SWAP2 POP JUMPDEST POP POP SWAP1 POP PUSH0 DUP3 PUSH20 0xFFFFFFFFFFFFFFFFFFFFFFFFFFFFFFFFFFFFFFFF AND PUSH1 0xA PUSH1 0x1 SELFBALANCE PUSH2 0x1EE SWAP2 SWAP1 PUSH2 0x560 JUMP JUMPDEST PUSH2 0x1F8 SWAP2 SWAP1 PUSH2 0x5CE JUMP JUMPDEST PUSH1 0x40 MLOAD PUSH2 0x204 SWAP1 PUSH2 0x62B JUMP JUMPDEST PUSH0 PUSH1 0x40 MLOAD DUP1 DUP4 SUB DUP2 DUP6 DUP8 GAS CALL SWAP3 POP POP POP RETURNDATASIZE DUP1 PUSH0 DUP2 EQ PUSH2 0x23E JUMPI PUSH1 0x40 MLOAD SWAP2 POP PUSH1 0x1F NOT PUSH1 0x3F RETURNDATASIZE ADD AND DUP3 ADD PUSH1 0x40 MSTORE RETURNDATASIZE DUP3 MSTORE RETURNDATASIZE PUSH0 PUSH1 0x20 DUP5 ADD RETURNDATACOPY PUSH2 0x243 JUMP JUMPDEST PUSH1 0x60 SWAP2 POP JUMPDEST POP POP SWAP1 POP DUP2 PUSH2 0x287 JUMPI PUSH1 0x40 MLOAD PUSH32 0x8C379A000000000000000000000000000000000000000000000000000000000 DUP2 MSTORE PUSH1 0x4 ADD PUSH2 0x27E SWAP1 PUSH2 0x689 JUMP JUMPDEST PUSH1 0x40 MLOAD DUP1 SWAP2 SUB SWAP1 REVERT JUMPDEST DUP1 PUSH2 0x2C7 JUMPI PUSH1 0x40 MLOAD PUSH32 0x8C379A000000000000000000000000000000000000000000000000000000000 DUP2 MSTORE PUSH1 0x4 ADD PUSH2 0x2BE SWAP1 PUSH2 0x6F1 JUMP JUMPDEST PUSH1 0x40 MLOAD DUP1 SWAP2 SUB SWAP1 REVERT JUMPDEST POP POP POP POP JUMP JUMPDEST PUSH1 0x3 SLOAD DUP2 JUMP JUMPDEST PUSH1 0x4 SLOAD PUSH1 0x3 SLOAD LT PUSH2 0x319 JUMPI PUSH1 0x40 MLOAD PUSH32 0x8C379A000000000000000000000000000000000000000000000000000000000 DUP2 MSTORE PUSH1 0x4 ADD PUSH2 0x310 SWAP1 PUSH2 0x759 JUMP JUMPDEST PUSH1 0x40 MLOAD DUP1 SWAP2 SUB SWAP1 REVERT JUMPDEST PUSH8 0xDE0B6B3A7640000 CALLVALUE EQ PUSH2 0x363 JUMPI PUSH1 0x40 MLOAD PUSH32 0x8C379A000000000000000000000000000000000000000000000000000000000 DUP2 MSTORE PUSH1 0x4 ADD PUSH2 0x35A SWAP1 PUSH2 0x7C1 JUMP JUMPDEST PUSH1 0x40 MLOAD DUP1 SWAP2 SUB SWAP1 REVERT JUMPDEST PUSH0 PUSH1 0x40 MLOAD DUP1 PUSH1 0x40 ADD PUSH1 0x40 MSTORE DUP1 PUSH1 0x3 SLOAD DUP2 MSTORE PUSH1 0x20 ADD CALLER PUSH20 0xFFFFFFFFFFFFFFFFFFFFFFFFFFFFFFFFFFFFFFFF AND DUP2 MSTORE POP SWAP1 POP DUP1 PUSH1 0x1 PUSH0 PUSH1 0x3 SLOAD DUP2 MSTORE PUSH1 0x20 ADD SWAP1 DUP2 MSTORE PUSH1 0x20 ADD PUSH0 KECCAK256 PUSH0 DUP3 ADD MLOAD DUP2 PUSH0 ADD SSTORE PUSH1 0x20 DUP3 ADD MLOAD DUP2 PUSH1 0x1 ADD PUSH0 PUSH2 0x100 EXP DUP2 SLOAD DUP2 PUSH20 0xFFFFFFFFFFFFFFFFFFFFFFFFFFFFFFFFFFFFFFFF MUL NOT AND SWAP1 DUP4 PUSH20 0xFFFFFFFFFFFFFFFFFFFFFFFFFFFFFFFFFFFFFFFF AND MUL OR SWAP1 SSTORE POP SWAP1 POP POP PUSH1 0x3 PUSH0 DUP2 SLOAD DUP1 SWAP3 SWAP2 SWAP1 PUSH2 0x40A SWAP1 PUSH2 0x7DF JUMP JUMPDEST SWAP2 SWAP1 POP SSTORE POP POP JUMP JUMPDEST PUSH0 DUP1 TIMESTAMP PREVRANDAO CALLER PUSH1 0x40 MLOAD PUSH1 0x20 ADD PUSH2 0x429 SWAP4 SWAP3 SWAP2 SWAP1 PUSH2 0x8BB JUMP JUMPDEST PUSH1 0x40 MLOAD PUSH1 0x20 DUP2 DUP4 SUB SUB DUP2 MSTORE SWAP1 PUSH1 0x40 MSTORE DUP1 MLOAD SWAP1 PUSH1 0x20 ADD KECCAK256 PUSH0 SHR SWAP1 POP DUP3 DUP2 PUSH2 0x44F SWAP2 SWAP1 PUSH2 0x8F7 JUMP JUMPDEST SWAP2 POP POP SWAP2 SWAP1 POP JUMP JUMPDEST PUSH0 DUP2 SWAP1 POP SWAP2 SWAP1 POP JUMP JUMPDEST PUSH2 0x469 DUP2 PUSH2 0x457 JUMP JUMPDEST DUP3 MSTORE POP POP JUMP JUMPDEST PUSH0 PUSH1 0x20 DUP3 ADD SWAP1 POP PUSH2 0x482 PUSH0 DUP4 ADD DUP5 PUSH2 0x460 JUMP JUMPDEST SWAP3 SWAP2 POP POP JUMP JUMPDEST PUSH0 DUP3 DUP3 MSTORE PUSH1 0x20 DUP3 ADD SWAP1 POP SWAP3 SWAP2 POP POP JUMP JUMPDEST PUSH32 0x4120666577207469636B657473206C6566740000000000000000000000000000 PUSH0 DUP3 ADD MSTORE POP JUMP JUMPDEST PUSH0 PUSH2 0x4CC PUSH1 0x12 DUP4 PUSH2 0x488 JUMP JUMPDEST SWAP2 POP PUSH2 0x4D7 DUP3 PUSH2 0x498 JUMP JUMPDEST PUSH1 0x20 DUP3 ADD SWAP1 POP SWAP2 SWAP1 POP JUMP JUMPDEST PUSH0 PUSH1 0x20 DUP3 ADD SWAP1 POP DUP2 DUP2 SUB PUSH0 DUP4 ADD MSTORE PUSH2 0x4F9 DUP2 PUSH2 0x4C0 JUMP JUMPDEST SWAP1 POP SWAP2 SWAP1 POP JUMP JUMPDEST PUSH32 0x4E487B7100000000000000000000000000000000000000000000000000000000 PUSH0 MSTORE PUSH1 0x11 PUSH1 0x4 MSTORE PUSH1 0x24 PUSH0 REVERT JUMPDEST PUSH0 PUSH2 0x537 DUP3 PUSH2 0x457 JUMP JUMPDEST SWAP2 POP PUSH2 0x542 DUP4 PUSH2 0x457 JUMP JUMPDEST SWAP3 POP DUP3 DUP3 SUB SWAP1 POP DUP2 DUP2 GT ISZERO PUSH2 0x55A JUMPI PUSH2 0x559 PUSH2 0x500 JUMP JUMPDEST JUMPDEST SWAP3 SWAP2 POP POP JUMP JUMPDEST PUSH0 PUSH2 0x56A DUP3 PUSH2 0x457 JUMP JUMPDEST SWAP2 POP PUSH2 0x575 DUP4 PUSH2 0x457 JUMP JUMPDEST SWAP3 POP DUP3 DUP3 MUL PUSH2 0x583 DUP2 PUSH2 0x457 JUMP JUMPDEST SWAP2 POP DUP3 DUP3 DIV DUP5 EQ DUP4 ISZERO OR PUSH2 0x59A JUMPI PUSH2 0x599 PUSH2 0x500 JUMP JUMPDEST JUMPDEST POP SWAP3 SWAP2 POP POP JUMP JUMPDEST PUSH32 0x4E487B7100000000000000000000000000000000000000000000000000000000 PUSH0 MSTORE PUSH1 0x12 PUSH1 0x4 MSTORE PUSH1 0x24 PUSH0 REVERT JUMPDEST PUSH0 PUSH2 0x5D8 DUP3 PUSH2 0x457 JUMP JUMPDEST SWAP2 POP PUSH2 0x5E3 DUP4 PUSH2 0x457 JUMP JUMPDEST SWAP3 POP DUP3 PUSH2 0x5F3 JUMPI PUSH2 0x5F2 PUSH2 0x5A1 JUMP JUMPDEST JUMPDEST DUP3 DUP3 DIV SWAP1 POP SWAP3 SWAP2 POP POP JUMP JUMPDEST PUSH0 DUP2 SWAP1 POP SWAP3 SWAP2 POP POP JUMP JUMPDEST POP JUMP JUMPDEST PUSH0 PUSH2 0x616 PUSH0 DUP4 PUSH2 0x5FE JUMP JUMPDEST SWAP2 POP PUSH2 0x621 DUP3 PUSH2 0x608 JUMP JUMPDEST PUSH0 DUP3 ADD SWAP1 POP SWAP2 SWAP1 POP JUMP JUMPDEST PUSH0 PUSH2 0x635 DUP3 PUSH2 0x60B JUMP JUMPDEST SWAP2 POP DUP2 SWAP1 POP SWAP2 SWAP1 POP JUMP JUMPDEST PUSH32 0x4661696C656420746F2073656E6420657468657220746F2077696E6E65720000 PUSH0 DUP3 ADD MSTORE POP JUMP JUMPDEST PUSH0 PUSH2 0x673 PUSH1 0x1E DUP4 PUSH2 0x488 JUMP JUMPDEST SWAP2 POP PUSH2 0x67E DUP3 PUSH2 0x63F JUMP JUMPDEST PUSH1 0x20 DUP3 ADD SWAP1 POP SWAP2 SWAP1 POP JUMP JUMPDEST PUSH0 PUSH1 0x20 DUP3 ADD SWAP1 POP DUP2 DUP2 SUB PUSH0 DUP4 ADD MSTORE PUSH2 0x6A0 DUP2 PUSH2 0x667 JUMP JUMPDEST SWAP1 POP SWAP2 SWAP1 POP JUMP JUMPDEST PUSH32 0x4661696C656420746F2073656E64206665650000000000000000000000000000 PUSH0 DUP3 ADD MSTORE POP JUMP JUMPDEST PUSH0 PUSH2 0x6DB PUSH1 0x12 DUP4 PUSH2 0x488 JUMP JUMPDEST SWAP2 POP PUSH2 0x6E6 DUP3 PUSH2 0x6A7 JUMP JUMPDEST PUSH1 0x20 DUP3 ADD SWAP1 POP SWAP2 SWAP1 POP JUMP JUMPDEST PUSH0 PUSH1 0x20 DUP3 ADD SWAP1 POP DUP2 DUP2 SUB PUSH0 DUP4 ADD MSTORE PUSH2 0x708 DUP2 PUSH2 0x6CF JUMP JUMPDEST SWAP1 POP SWAP2 SWAP1 POP JUMP JUMPDEST PUSH32 0x4E6F206D6F7265207469636B657473206C656674282828000000000000000000 PUSH0 DUP3 ADD MSTORE POP JUMP JUMPDEST PUSH0 PUSH2 0x743 PUSH1 0x17 DUP4 PUSH2 0x488 JUMP JUMPDEST SWAP2 POP PUSH2 0x74E DUP3 PUSH2 0x70F JUMP JUMPDEST PUSH1 0x20 DUP3 ADD SWAP1 POP SWAP2 SWAP1 POP JUMP JUMPDEST PUSH0 PUSH1 0x20 DUP3 ADD SWAP1 POP DUP2 DUP2 SUB PUSH0 DUP4 ADD MSTORE PUSH2 0x770 DUP2 PUSH2 0x737 JUMP JUMPDEST SWAP1 POP SWAP2 SWAP1 POP JUMP JUMPDEST PUSH32 0x42697463682120506179203120657468657220666F722061207469636B657421 PUSH0 DUP3 ADD MSTORE POP JUMP JUMPDEST PUSH0 PUSH2 0x7AB PUSH1 0x20 DUP4 PUSH2 0x488 JUMP JUMPDEST SWAP2 POP PUSH2 0x7B6 DUP3 PUSH2 0x777 JUMP JUMPDEST PUSH1 0x20 DUP3 ADD SWAP1 POP SWAP2 SWAP1 POP JUMP JUMPDEST PUSH0 PUSH1 0x20 DUP3 ADD SWAP1 POP DUP2 DUP2 SUB PUSH0 DUP4 ADD MSTORE PUSH2 0x7D8 DUP2 PUSH2 0x79F JUMP JUMPDEST SWAP1 POP SWAP2 SWAP1 POP JUMP JUMPDEST PUSH0 PUSH2 0x7E9 DUP3 PUSH2 0x457 JUMP JUMPDEST SWAP2 POP PUSH32 0xFFFFFFFFFFFFFFFFFFFFFFFFFFFFFFFFFFFFFFFFFFFFFFFFFFFFFFFFFFFFFFFF DUP3 SUB PUSH2 0x81B JUMPI PUSH2 0x81A PUSH2 0x500 JUMP JUMPDEST JUMPDEST PUSH1 0x1 DUP3 ADD SWAP1 POP SWAP2 SWAP1 POP JUMP JUMPDEST PUSH0 DUP2 SWAP1 POP SWAP2 SWAP1 POP JUMP JUMPDEST PUSH2 0x840 PUSH2 0x83B DUP3 PUSH2 0x457 JUMP JUMPDEST PUSH2 0x826 JUMP JUMPDEST DUP3 MSTORE POP POP JUMP JUMPDEST PUSH0 PUSH20 0xFFFFFFFFFFFFFFFFFFFFFFFFFFFFFFFFFFFFFFFF DUP3 AND SWAP1 POP SWAP2 SWAP1 POP JUMP JUMPDEST PUSH0 PUSH2 0x86F DUP3 PUSH2 0x846 JUMP JUMPDEST SWAP1 POP SWAP2 SWAP1 POP JUMP JUMPDEST PUSH0 DUP2 PUSH1 0x60 SHL SWAP1 POP SWAP2 SWAP1 POP JUMP JUMPDEST PUSH0 PUSH2 0x88C DUP3 PUSH2 0x876 JUMP JUMPDEST SWAP1 POP SWAP2 SWAP1 POP JUMP JUMPDEST PUSH0 PUSH2 0x89D DUP3 PUSH2 0x882 JUMP JUMPDEST SWAP1 POP SWAP2 SWAP1 POP JUMP JUMPDEST PUSH2 0x8B5 PUSH2 0x8B0 DUP3 PUSH2 0x865 JUMP JUMPDEST PUSH2 0x893 JUMP JUMPDEST DUP3 MSTORE POP POP JUMP JUMPDEST PUSH0 PUSH2 0x8C6 DUP3 DUP7 PUSH2 0x82F JUMP JUMPDEST PUSH1 0x20 DUP3 ADD SWAP2 POP PUSH2 0x8D6 DUP3 DUP6 PUSH2 0x82F JUMP JUMPDEST PUSH1 0x20 DUP3 ADD SWAP2 POP PUSH2 0x8E6 DUP3 DUP5 PUSH2 0x8A4 JUMP JUMPDEST PUSH1 0x14 DUP3 ADD SWAP2 POP DUP2 SWAP1 POP SWAP5 SWAP4 POP POP POP POP JUMP JUMPDEST PUSH0 PUSH2 0x901 DUP3 PUSH2 0x457 JUMP JUMPDEST SWAP2 POP PUSH2 0x90C DUP4 PUSH2 0x457 JUMP JUMPDEST SWAP3 POP DUP3 PUSH2 0x91C JUMPI PUSH2 0x91B PUSH2 0x5A1 JUMP JUMPDEST JUMPDEST DUP3 DUP3 MOD SWAP1 POP SWAP3 SWAP2 POP POP JUMP INVALID LOG2 PUSH5 0x6970667358 0x22 SLT KECCAK256 DUP16 0xBE MUL 0xCF 0xEF PUSH25 0xD849962EF7DB668D70EDFB094B836344DD9D62E50206E988C4 MOD PUSH5 0x736F6C6343 STOP ADDMOD AND STOP CALLER "
				},
				"gasEstimates": {
					"creation": {
						"codeDepositCost": "479400",
						"executionCost": "51885",
						"totalCost": "531285"
					},
					"external": {
						"buyTicket()": "79524",
						"currentTicketId()": "2447",
						"drawLottery()": "infinite",
						"ticketAmount()": "2403"
					},
					"internal": {
						"getRandomTicketId(uint256)": "infinite"
					}
				},
				"methodIdentifiers": {
					"buyTicket()": "edca914c",
					"currentTicketId()": "686465b8",
					"drawLottery()": "27e605ec",
					"ticketAmount()": "0ba679c1"
				}
			},
			"storageLayout": {
				"storage": [
					{
						"astId": 8,
						"contract": "contracts/Lock.sol:Lottery",
						"label": "owner",
						"offset": 0,
						"slot": "0",
						"type": "t_address"
					},
					{
						"astId": 13,
						"contract": "contracts/Lock.sol:Lottery",
						"label": "tickets",
						"offset": 0,
						"slot": "1",
						"type": "t_mapping(t_uint256,t_struct(Ticket)6_storage)"
					},
					{
						"astId": 18,
						"contract": "contracts/Lock.sol:Lottery",
						"label": "ticketsToOwner",
						"offset": 0,
						"slot": "2",
						"type": "t_mapping(t_address,t_array(t_uint256)dyn_storage)"
					},
					{
						"astId": 21,
						"contract": "contracts/Lock.sol:Lottery",
						"label": "currentTicketId",
						"offset": 0,
						"slot": "3",
						"type": "t_uint256"
					},
					{
						"astId": 24,
						"contract": "contracts/Lock.sol:Lottery",
						"label": "ticketAmount",
						"offset": 0,
						"slot": "4",
						"type": "t_uint256"
					}
				],
				"types": {
					"t_address": {
						"encoding": "inplace",
						"label": "address",
						"numberOfBytes": "20"
					},
					"t_array(t_uint256)dyn_storage": {
						"base": "t_uint256",
						"encoding": "dynamic_array",
						"label": "uint256[]",
						"numberOfBytes": "32"
					},
					"t_mapping(t_address,t_array(t_uint256)dyn_storage)": {
						"encoding": "mapping",
						"key": "t_address",
						"label": "mapping(address => uint256[])",
						"numberOfBytes": "32",
						"value": "t_array(t_uint256)dyn_storage"
					},
					"t_mapping(t_uint256,t_struct(Ticket)6_storage)": {
						"encoding": "mapping",
						"key": "t_uint256",
						"label": "mapping(uint256 => struct Lottery.Ticket)",
						"numberOfBytes": "32",
						"value": "t_struct(Ticket)6_storage"
					},
					"t_struct(Ticket)6_storage": {
						"encoding": "inplace",
						"label": "struct Lottery.Ticket",
						"members": [
							{
								"astId": 3,
								"contract": "contracts/Lock.sol:Lottery",
								"label": "id",
								"offset": 0,
								"slot": "0",
								"type": "t_uint256"
							},
							{
								"astId": 5,
								"contract": "contracts/Lock.sol:Lottery",
								"label": "owner",
								"offset": 0,
								"slot": "1",
								"type": "t_address"
							}
						],
						"numberOfBytes": "64"
					},
					"t_uint256": {
						"encoding": "inplace",
						"label": "uint256",
						"numberOfBytes": "32"
					}
				}
			},
			"userdoc": {
				"kind": "user",
				"methods": {},
				"version": 1
			}
		}
	}
}